{
  hash: fef757bcc18bac04459b263375d2bba9dc2e740b8ccb944999c5eaba2cb809cc,
  hex: 020000000001011b2e80c2f433b44b10d53015843e17990c87455056186e2ec6b7621d2c18760a0000000000feffffff02c69f046900000000160014dabeb09f7313d923d6cc87ee9ff72d952217c069a086010000000000160014d2b8a36d6617bf9b9b3a92ffaed0cec09043726402473044022055f1537b80807ff2bfc1158f08a6768ba4e5df44ee22875e256a639f27b8b5e202205ef80b79225347bed579852941adecf5ea5d9c4b6c2adb5aeace3cee624f5897012103d1e0fd0d4aef2da677eea817c6c78311adf6f49431a5ff7befa36f4a57a84bc172db2200,
  witnessHash: fd727e676b0ccfc0e9113e47b049dae58b837bc082803e06543985a238726142,
  fee: 141.0,
  blockNumber: 2284403.0,
  time: 1657133979.0,
  index: 53.0,
  version: 2.0,
  inputs: [
    {
      prevout: {
        hash: 0a76182c1d62b7c62e6e18565045870c99173e841530d5104bb433f4c2802e1b
      },
      script: ,
      sequence: 4294967294.0,
      coin: {
        version: 2.0,
        value: 1762010867.0,
        script: 001496463dfaa531b4f1db98578b0a8875fde3763ed7,
        address: tb1qjerrm749xx60rkuc279s4zr4lh3hv0khnzztwp,
        coinbase: false
      }
    }
  ],
  outputs: [
    {
      value: 1761910726.0,
      script: 0014dabeb09f7313d923d6cc87ee9ff72d952217c069,
      address: tb1qm2ltp8mnz0vj84kvslhflaedj53p0srf6vdvh8
    },
    {
      value: 100000.0,
      script: 0014d2b8a36d6617bf9b9b3a92ffaed0cec090437264,
      address: tb1q62u2xmtxz7lehxe6jtl6a5xwczgyxunyl3vm06
    }
  ],
  locktime: 2284402.0
}